:020000040000FA
:040000006BEF00F0B2
:08000800B0EF04F0056A046E7C
:10001000FF0E0426D8A005260000D8A01200030E6B
:10002000016EE70E02D8F4D7016AFE0F006E0000E1
:1000300000D000D0E86A015AD8A01200000600D013
:1000400000D0F5D7076A066A100E106E0134063626
:1000500007360450065E0550D8A0053C075E07E24F
:10006000045006260550D8B0053C0726D890003627
:100070000136102EEBD700501200F86AA66AA68E41
:100080000900F55002E0EE6EFBD712004558000063
:100090002B2B2B0041545344424C452C302C300028
:1000A00041545344534C452C302C302C3700415490
:1000B000534E2C49522D426C75652D444D004154D0
:1000C00053504C2C302C3000415444534C450000CC
:1000D000523030310000188CA66AA68EE9EF04F089
:1000E0000F0EE06E0F01386B396B3A6BE06A00015E
:1000F000120019C0C8FF1AC0C7FFC56A9486948849
:10010000280EC66E120019901F0EC5141B6A1A6EB7
:100110001B501A1002E1C7A419801200F4DF19A0C5
:10012000FDD71200FBDFC580C5B0FED71200F6DF99
:10013000C584C5B4FED71200F1DFC582C5B2FED7B3
:100140001200ECDF1CB0C58A1CA0C59AC588C5B8D2
:10015000FED71200E3DFC586C7A0FED7C9CF1CF0CB
:100160001200DCDF1CC0C9FFC7B0FED71200900E22
:10017000AB6E948E949C240EAC6EB8861200ABA22B
:1001800002D0AB98AB8812009EAAFED712009EA8A0
:10019000FED7AD6E1200FBD700EE4AF0EE5004E041
:1001A0009EA8FED7AD6EFAD712001B90EDDFAE50C1
:1001B0001A5CD8B41B801200E2DF216A10EE1CF03A
:1001C0002150E126000EE222E7CF24F024520FE076
:1001D00010EE1CF02150E126000EE222E7CF1AF0CB
:1001E000E4DF1BA002D0212A01D0216AE7D7120048
:1001F000195204E0E5CFEEFF1906FAD7120010EE0F
:100200001CF03D6A016A1AC000F0056A1BC004F0C8
:1002100019DF06C03EF00A0E3E5C02E3070E3E26E2
:10022000300E3E24E46E016A1AC000F0056A1BC05D
:1002300004F008DF1A6E3D2A1A52E4E13DC019F0BD
:10024000D7DFEE6A12001F801B501E5C02E21EC048
:100250001BF01B50E926000EEA22ED6A1B5227E034
:10026000195209E11FA002D0300E1D6E1DC0EDFF16
:100270001CC01DF019D0016A19C000F0056A1AC02F
:1002800004F0E0DE06C020F00A0E205C02E3070E58
:100290002026300E2024ED6E016A19C000F0056A98
:1002A0001AC004F0CFDE196E1B061F90D7D71200BC
:1002B00020801C501F5C02E21FC01CF01C50E9266D
:1002C000000EEA22ED6A1C522CE01A50191009E1C6
:1002D00020A002D0300E1E6E1EC0EDFF1DC01EF00D
:1002E0001DD01AC001F019C000F0056A1BC004F04F
:1002F000A9DE06C021F00A0E215C02E3070E2126CA
:10030000300E2124ED6E1AC001F019C000F0056A0C
:100310001BC004F097DE196E01C01AF01C06209075
:10032000D2D7120000EE42F041C01AF00A0E1B6E46
:1003300066D700EE24F0100E1E6E21C019F00A0ED2
:100340001A6E22C01BF023C01CF023C01DF07BD707
:1003500025C026F000EE27F023AE0DD0300E255C30
:1003600004E124062D0EEE6E02D02D0E266ED880EE
:10037000000E22562356100E1F6E23C01AF022C004
:1003800019F00A0E1B6E24C01CF025C01DF026C0FB
:100390001EF08ED71AC0BFF019C0BEF0BB6BBC6B8D
:1003A0007A937A95ECDE9D8AF28E1200F29EF2BE6E
:1003B000FDD7BFC01AF0BEC019F0ECD7F28E120004
:1003C000F29EF2BEFDD712001990ABB204D0D896BF
:1003D0007AA5D886D8A619801200480EBD5D0BE11B
:1003E00002014C2B060E4C5D000103E3010E0201DD
:1003F0004C6F0001C0817A91120094DEA00E1C6E39
:10040000B0DE1C6AAEDE98DEA10E1C6EAADE020112
:10041000416B0001010E1F6E410E1E6E0201415123
:100420001E26000E1F22000195DE1FC0EAFF1EC01F
:10043000E9FF1CC0EFFF1C9084DE0201412B010E7E
:10044000415D0001E6E273D66DDEC00E1C6E89DEF2
:10045000020E1C6E86DE920E1C6E83DE1C6A81DE2E
:10046000010E1C6E7EDE68DEC10E1C6E7ADE72DE50
:100470001CC042F21C9065DE6DDE1CC043F21C9075
:1004800060DE55D64FDEC00E1C6E6BDE020E1C6E9B
:1004900068DE900E1C6E65DE1C6A63DE010E1C6E4B
:1004A00060DE4ADEC10E1C6E5CDE54DE1CC048F20B
:1004B0001C9047DE4FDE1CC049F21C9042DE37D64E
:1004C00031DEC00E1C6E4DDE020E1C6E4ADE910E39
:1004D0001C6E47DE1C6A45DE010E1C6E42DE2CDE01
:1004E000C10E1C6E3EDE36DE1CC046F21C9029DEBC
:1004F00031DE1CC047F21C9024DE19D613DEC00E7C
:100500001C6E2FDE020E1C6E2CDE1C6A2ADE010E13
:100510001C6E27DE400E1C6E24DE0EDEC10E1C6E2D
:1005200020DE0201416B0001400E0201415D00012D
:100530001DE210DE1CC044F21C9003DE0BDE1CC06A
:1005400045F21C90FEDDD890020141351F6E206AF5
:10055000203600EEC1F01F50E9262050EA2244C2A6
:10056000EEFF45C2EEFF412B0001DDD797EF00F013
:1005700092EC00F0C00E1C6EB1EC00F0030E1C6E8D
:10058000B1EC00F0BA0E1C6EB1EC00F00F0E1C6E58
:10059000B1EC00F01F0E1C6EB1EC00F0740E1C6E7E
:1005A000B1EC00F097EF00F092EC00F0C00E1C6E82
:1005B000B1EC00F0030E1C6EB1EC00F0B90E1C6E35
:1005C000B1EC00F00E0E1C6EB1EC00F01F0E1C6EB4
:1005D000B1EC00F0740E1C6EB1EC00F097EF00F07F
:1005E00092EC00F0C00E1C6EB1EC00F0030E1C6E1D
:1005F000B1EC00F0B80E1C6EB1EC00F00D0E1C6EEC
:10060000B1EC00F01F0E1C6EB1EC00F0740E1C6E0D
:10061000B1EC00F097EF00F092EC00F0C00E1C6E11
:10062000B1EC00F0030E1C6EB1EC00F0B70E1C6EC6
:10063000B1EC00F00C0E1C6EB1EC00F01F0E1C6E45
:10064000B1EC00F0740E1C6EB1EC00F097EF00F00E
:1006500092EC00F0C00E1C6EB1EC00F0030E1C6EAC
:10066000B1EC00F0B60E1C6EB1EC00F00B0E1C6E7F
:10067000B1EC00F01F0E1C6EB1EC00F0740E1C6E9D
:10068000B1EC00F097EF00F092EC00F0C00E1C6EA1
:10069000B1EC00F0030E1C6EB1EC00F0B50E1C6E58
:1006A000B1EC00F00A0E1C6EB1EC00F01F0E1C6ED7
:1006B000B1EC00F0740E1C6EB1EC00F097EF00F09E
:1006C000010E02014C5D000108E152DF030E020140
:1006D0004B6FDE0E4A6F00013CD0020E02014C5DF2
:1006E000000108E161DF030E02014B6FDE0E4A6F6D
:1006F00000012FD0030E02014C5D000108E170DF04
:10070000010E02014B6FEA0E4A6F000122D0040E67
:1007100002014C5D000107E17FDF02014B6BF00E2F
:100720004A6F000116D0050E02014C5D000107E181
:100730008FDF02014B6B780E4A6F00010AD0060E64
:1007400002014C5D000105E19FDF02014B6B3C0E95
:100750004A6F0001640E06EF00F076DE040E02011F
:1007600043151D6E1D520001D8B4AADF1200450EBC
:10077000CBEC00F00201416B0001606B4A0E5F6E32
:1007800011EE41F002014151E126000EE222E7CFD5
:1007900021F0030E226E200E236E000199EC01F071
:1007A000656B240E646F60C0EAFF5FC0E9FF65C03F
:1007B000E2FF64C0E1FFE65002E0EE6EFCD7EF6AB4
:1007C000CCEC00F00201412B010E415D0001D4E2AE
:1007D00000EE4AF0000EF76E8C0EF66E3DEC00F067
:1007E000EF6ACCEC00F00D0ECBEC00F00A0ECBEF74
:1007F00000F0520ECBEC00F0606B4A0E5F6E900E74
:10080000416E92EC01F0626B420E616F60C0EAFFD4
:100810005FC0E9FF62C0E2FF61C0E1FFE65002E0B5
:10082000EE6EFCD7EF6ACCEC00F0606B4A0E5F6EA8
:10083000300E256E49C223F048C222F0060E246E07
:10084000A8EC01F0626B270E616F60C0EAFF5FC029
:10085000E9FF62C0E2FF61C0E1FFE65002E0EE6E38
:10086000FCD7EF6ACCEC00F0606B4A0E5F6E910E25
:10087000416E92EC01F0626B420E616F60C0EAFF64
:100880005FC0E9FF62C0E2FF61C0E1FFE65002E045
:10089000EE6EFCD7EF6ACCEC00F0606B4A0E5F6E38
:1008A000300E256E47C223F046C222F0060E246E9B
:1008B000A8EC01F0626B270E616F60C0EAFF5FC0B9
:1008C000E9FF62C0E2FF61C0E1FFE65002E0EE6EC8
:1008D000FCD7EF6ACCEC00F0490ECBEC00F0020143
:1008E000416B0001400E0201415D000130E2606B8E
:1008F0004A0E5F6ED890020141350001616F626B54
:10090000623710EEC1F06151E1266251E222E6CF7A
:1009100022F0E6CF23F0060E246E200E256EA8EC02
:1009200001F0686B270E676F60C0EAFF5FC0E9FFE8
:1009300068C0E2FF67C0E1FFE65002E0EE6EFCD760
:10094000EF6ACCEC00F00201412B0001CAD7580E2F
:10095000CBEC00F00D0ECBEC00F00A0ECBEF00F06C
:10096000FACF6BF00001EACF6AF0E9CF69F07A853F
:100970007AA37A95ABB226D0AECFBDF0D8967AB531
:10098000D88620E47A81BF51BE1106E001D804D098
:10099000BFC0FAFFBE51F96ED8967AA1D88612E48C
:1009A00000EE7BF0BB51E926000EEA22BDC0EFFF4E
:1009B000BB2B400EBB5DD8B0BB6B7A93BB51BC5D0B
:1009C000D8B47A836AC0EAFF69C0E9FF6BC0FAFF56
:1009D0001100D08E786B796B700ED36E840ED26E50
:1009E000400E9B6E896A8A6A8B6A0F01386B396B7D
:1009F0003A6B926ABD0E936E400E946E000170ECDD
:100A000000F0C091C093010E056EF40E07EC00F0EB
:100A1000B06A8A0EAF6EB7EC00F0030E056EE80EFA
:100A200007EC00F000EE4AF0000EF76E900EF66E46
:100A30003DEC00F0EF6ACCEC00F00D0ECBEC00F0DA
:100A4000C80E06EC00F000EE4AF0000EF76E940EB1
:100A5000F66E3DEC00F0EF6ACCEC00F00D0ECBEC46
:100A600000F0C80E06EC00F000EE4AF0000EF76E43
:100A7000A00EF66E3DEC00F0EF6ACCEC00F00D0E2F
:100A8000CBEC00F0C80E06EC00F000EE4AF0000ED1
:100A9000F76EAE0EF66E3DEC00F0EF6ACCEC00F0B7
:100AA0000D0ECBEC00F0C80E06EC00F000EE4AF0A4
:100AB000000EF76EBE0EF66E3DEC00F0EF6ACCEC69
:100AC00000F00D0ECBEC00F0C80E06EC00F0C00EEE
:100AD0001A6E270E196E79EC00F0030E056EE80E03
:100AE00007EC00F0040E02014C6F0001E9DD640E1A
:100AF00006EC00F000EE4AF0000EF76EC80EF66E3F
:100B00003DEC00F0EF6ACCEC00F00D0ECBEC00F009
:100B1000640E06EC00F0FDEC01F000EE1CF0000E9F
:100B2000F76ED00EF66E3DEC00F0EF6ADCEC00F0F4
:100B3000030E1A6EDA0E196ECAEC01F0010E056E84
:100B4000F40E07EC00F013DE030E056EE80E07EC62
:100B500000F0E0EC01F001DE42EC02F060EC02F0AB
:100B60007EEC02F046DEDEEC01F0E4EC01F019A0D0
:100B700003D0D6EC01F0C091D896C0A1D88605E488
:100B800060EC03F0D6EC01F0C0914BC205F002011D
:0E0B90004A5107EC00F00001DCD70300FED74D
:020000040030CA
:03000100221A3C84
:02000500BD81BB
:060008000FC00FE00F40E5
:00000001FF
