:020000040000FA
:040000005CEF00F0C1
:08000800A1EF04F0056A046E8B
:10001000FF0E0426D8A005260000D8A01200030E6B
:10002000016EE70E02D8F4D7016AFE0F006E0000E1
:1000300000D000D0E86A015AD8A01200000600D013
:1000400000D0F5D7076A066A100E106E0134063626
:1000500007360450065E0550D8A0053C075E07E24F
:10006000045006260550D8B0053C0726D890003627
:100070000136102EEBD700501200F86AA66AA68E41
:100080000900F55002E0EE6EFBD712004558000063
:100090004154000041542B4E414D4549522D426C74
:1000A00075652D425432000041542B42415544386D
:1000B0000000523030310000188CA66AA68EDAEFAC
:1000C00004F00F0EE06E0F01386B396B3A6BE06A8B
:1000D0000001120019C0C8FF1AC0C7FFC56A948684
:1000E0009488280EC66E120019901F0EC5141B6A44
:1000F0001A6E1B501A1002E1C7A419801200F4DF17
:1001000019A0FDD71200FBDFC580C5B0FED71200D5
:10011000F6DFC584C5B4FED71200F1DFC582C5B2D3
:10012000FED71200ECDF1CB0C58A1CA0C59AC5889A
:10013000C5B8FED71200E3DFC586C7A0FED7C9CF7A
:100140001CF01200DCDF1CC0C9FFC7B0FED71200D4
:10015000900EAB6E948E949C240EAC6EB8861200FA
:10016000ABA202D0AB98AB8812009EAAFED71200B9
:100170009EA8FED7AD6E1200FBD700EE4AF0EE50FF
:1001800004E09EA8FED7AD6EFAD712001B90EDDFFB
:10019000AE501A5CD8B41B801200E2DF216A10EE68
:1001A0001CF02150E126000EE222E7CF24F0245279
:1001B0000FE010EE1CF02150E126000EE222E7CF06
:1001C0001AF0E4DF1BA002D0212A01D0216AE7D770
:1001D0001200195204E0E5CFEEFF1906FAD712001B
:1001E00010EE1CF03D6A016A1AC000F0056A1BC0DF
:1001F00004F028DF06C03EF00A0E3E5C02E3070E64
:100200003E26300E3E24E46E016A1AC000F0056AF4
:100210001BC004F017DF1A6E3D2A1A52E4E13DC0FC
:1002200019F0D7DFEE6A12001F801B501E5C02E23D
:100230001EC01BF01B50E926000EEA22ED6A1B527D
:1002400027E0195209E11FA002D0300E1D6E1DC01B
:10025000EDFF1CC01DF019D0016A19C000F0056A3D
:100260001AC004F0EFDE06C020F00A0E205C02E3A4
:10027000070E2026300E2024ED6E016A19C000F012
:10028000056A1AC004F0DEDE196E1B061F90D7D770
:10029000120020801C501F5C02E21FC01CF01C508A
:1002A000E926000EEA22ED6A1C522CE01A501910C1
:1002B00009E120A002D0300E1E6E1EC0EDFF1DC051
:1002C0001EF01DD01AC001F019C000F0056A1BC055
:1002D00004F0B8DE06C021F00A0E215C02E3070E2E
:1002E0002126300E2124ED6E1AC001F019C000F055
:1002F000056A1BC004F0A6DE196E01C01AF01C06C8
:100300002090D2D7120000EE42F041C01AF00A0E3F
:100310001B6E66D700EE24F0100E1E6E21C019F081
:100320000A0E1A6E22C01BF023C01CF023C01DF061
:100330007BD725C026F000EE27F023AE0DD0300E7F
:10034000255C04E124062D0EEE6E02D02D0E266EE5
:10035000D880000E22562356100E1F6E23C01AF0AE
:1003600022C019F00A0E1B6E24C01CF025C01DF01F
:1003700026C01EF08ED71AC0C1F019C0C0F0BD6BE8
:10038000BE6B7C937C95ECDE9D8AF28E1200F29E11
:10039000F2BEFDD7C1C01AF0C0C019F0ECD7F28E82
:1003A0001200F29EF2BEFDD712001990ABB204D03B
:1003B000D8967CA5D886D8A619801200480EBF5DB5
:1003C0000BE102014E2B060E4E5D000103E3010E10
:1003D00002014E6F0001C2817C91120094DEA00EDA
:1003E0001C6EB0DE1C6AAEDE98DEA10E1C6EAADEAC
:1003F0000201436B0001010E1F6E430E1E6E0201CF
:1004000043511E26000E1F22000195DE1FC0EAFF89
:100410001EC0E9FF1CC0EFFF1C9084DE0201432BCD
:10042000010E435D0001E6E273D66DDEC00E1C6E68
:1004300089DE020E1C6E86DE920E1C6E83DE1C6A46
:1004400081DE010E1C6E7EDE68DEC10E1C6E7ADE61
:1004500072DE1CC044F21C9065DE6DDE1CC045F2ED
:100460001C9060DE55D64FDEC00E1C6E6BDE020E99
:100470001C6E68DE900E1C6E65DE1C6A63DE010E6B
:100480001C6E60DE4ADEC10E1C6E5CDE54DE1CC0DB
:100490004AF21C9047DE4FDE1CC04BF21C9042DE3D
:1004A00037D631DEC00E1C6E4DDE020E1C6E4ADEEB
:1004B000910E1C6E47DE1C6A45DE010E1C6E42DE8C
:1004C0002CDEC10E1C6E3EDE36DE1CC048F21C90D7
:1004D00029DE31DE1CC049F21C9024DE19D613DE61
:1004E000C00E1C6E2FDE020E1C6E2CDE1C6A2ADE75
:1004F000010E1C6E27DE400E1C6E24DE0EDEC10EC9
:100500001C6E20DE0201436B0001400E0201435DC0
:1005100000011DE210DE1CC046F21C9003DE0BDE63
:100520001CC047F21C90FEDDD890020143351F6EBF
:10053000206A203600EEC3F01F50E9262050EA2240
:1005400046C2EEFF47C2EEFF432B0001DDD788EF26
:1005500000F083EC00F0C00E1C6EA2EC00F0030E65
:100560001C6EA2EC00F0BA0E1C6EA2EC00F00F0E96
:100570001C6EA2EC00F01F0E1C6EA2EC00F0740EBC
:100580001C6EA2EC00F088EF00F083EC00F0C00ECF
:100590001C6EA2EC00F0030E1C6EA2EC00F0B90E73
:1005A0001C6EA2EC00F00E0E1C6EA2EC00F01F0EF2
:1005B0001C6EA2EC00F0740E1C6EA2EC00F088EF32
:1005C00000F083EC00F0C00E1C6EA2EC00F0030EF5
:1005D0001C6EA2EC00F0B80E1C6EA2EC00F00D0E2A
:1005E0001C6EA2EC00F01F0E1C6EA2EC00F0740E4C
:1005F0001C6EA2EC00F088EF00F083EC00F0C00E5F
:100600001C6EA2EC00F0030E1C6EA2EC00F0B70E04
:100610001C6EA2EC00F00C0E1C6EA2EC00F01F0E83
:100620001C6EA2EC00F0740E1C6EA2EC00F088EFC1
:1006300000F083EC00F0C00E1C6EA2EC00F0030E84
:100640001C6EA2EC00F0B60E1C6EA2EC00F00B0EBD
:100650001C6EA2EC00F01F0E1C6EA2EC00F0740EDB
:100660001C6EA2EC00F088EF00F083EC00F0C00EEE
:100670001C6EA2EC00F0030E1C6EA2EC00F0B50E96
:100680001C6EA2EC00F00A0E1C6EA2EC00F01F0E15
:100690001C6EA2EC00F0740E1C6EA2EC00F088EF51
:1006A00000F0010E02014E5D000108E152DF030E71
:1006B00002014D6FDE0E4C6F00013CD0020E0201B4
:1006C0004E5D000108E161DF030E02014D6FDE0E99
:1006D0004C6F00012FD0030E02014E5D000108E1B6
:1006E00070DF010E02014D6FEA0E4C6F000122D047
:1006F000040E02014E5D000107E17FDF02014D6B38
:10070000F00E4C6F000116D0050E02014E5D000187
:1007100007E18FDF02014D6B780E4C6F00010AD0AC
:10072000060E02014E5D000105E19FDF02014D6BE7
:100730003C0E4C6F0001640E06EF00F076DE040EF6
:10074000020145151D6E1D520001D8B4AADF12002A
:10075000450EBCEC00F00201436B0001626B4A0ED7
:10076000616F11EE43F002014351E126000EE222D7
:10077000E7CF21F0030E226E200E236E00018AECDB
:1007800001F0676B240E666F62C0EAFF61C0E9FF8B
:1007900067C0E2FF66C0E1FFE65002E0EE6EFCD704
:1007A000EF6ABDEC00F00201432B010E435D000136
:1007B000D4E200EE4AF0000EF76E8C0EF66E3DECC1
:1007C00000F0EF6ABDEC00F00D0EBCEC00F00A0E7C
:1007D000BCEF00F0520EBCEC00F0626B4A0E616F91
:1007E000900E416E83EC01F0646B420E636F62C049
:1007F000EAFF61C0E9FF64C0E2FF63C0E1FFE650C9
:1008000002E0EE6EFCD7EF6ABDEC00F0626B4A0EC0
:10081000616F300E256E4BC223F04AC222F0060EE5
:10082000246E99EC01F0646B270E636F62C0EAFFDF
:1008300061C0E9FF64C0E2FF63C0E1FFE65002E08F
:10084000EE6EFCD7EF6ABDEC00F0626B4A0E616F92
:10085000910E416E83EC01F0646B420E636F62C0D7
:10086000EAFF61C0E9FF64C0E2FF63C0E1FFE65058
:1008700002E0EE6EFCD7EF6ABDEC00F0626B4A0E50
:10088000616F300E256E49C223F048C222F0060E79
:10089000246E99EC01F0646B270E636F62C0EAFF6F
:1008A00061C0E9FF64C0E2FF63C0E1FFE65002E01F
:1008B000EE6EFCD7EF6ABDEC00F0490EBCEC00F028
:1008C0000201436B0001400E0201435D000130E272
:1008D000626B4A0E616FD890020143350001636F6D
:1008E000646B643710EEC3F06351E1266451E22279
:1008F000E6CF22F0E6CF23F0060E246E200E256E02
:1009000099EC01F06A6B270E696F62C0EAFF61C063
:10091000E9FF6AC0E2FF69C0E1FFE65002E0EE6E67
:10092000FCD7EF6ABDEC00F00201432B0001CAD7EF
:10093000580EBCEC00F00D0EBCEC00F00A0EBCEF43
:1009400000F0FACF6DF00001EACF6CF0E9CF6BF068
:100950007C857CA37C95ABB226D0AECFBFF0D89679
:100960007CB5D88620E47C81C151C01106E001D855
:1009700004D0C1C0FAFFC051F96ED8967CA1D886C8
:1009800012E400EE7DF0BD51E926000EEA22BFC060
:10099000EFFFBD2B400EBD5DD8B0BD6B7C93BD514C
:1009A000BE5DD8B47C836CC0EAFF6BC0E9FF6DC04C
:1009B000FAFF1100D08E7A6B7B6B700ED36E840EB3
:1009C000D26E400E9B6E896A8A6A8B6A0F01386B01
:1009D000396B3A6B926ABD0E936E400E946E0001B5
:1009E00061EC00F0C291C293030E056EE80E07ECB5
:1009F00000F0060EB06E810EAF6EA8EC00F0030E94
:100A0000056EE80E07EC00F000EE4AF0000EF76EFF
:100A1000900EF66E3DEC00F0EF6ABDEC00F0010EBA
:100A2000056EF40E07EC00F000EE4AF0000EF76ED3
:100A3000940EF66E3DEC00F0EF6ABDEC00F0010E96
:100A4000056EF40E07EC00F000EE4AF0000EF76EB3
:100A5000A80EF66E3DEC00F0EF6ABDEC00F0010E62
:100A6000056EF40E07EC00F0B06A8A0EAF6EA8ECCB
:100A700000F0010E056EF40E07EC00F000EE4AF0F7
:100A8000000EF76E940EF66E3DEC00F0EF6ABDECD2
:100A900000F0C00E1A6E270E196E6AEC00F0030EFD
:100AA000056EE80E07EC00F0040E02014E6F000127
:100AB000F8DD640E06EC00F0640E06EC00F0EEECDF
:100AC00001F000EE1CF0000EF76EB20EF66E3DEC7B
:100AD00000F0EF6ACDEC00F0030E1A6EBC0E196E3A
:100AE000BBEC01F0010E056EF40E07EC00F030DEF9
:100AF000030E056EE80E07EC00F0D1EC01F01EDEEF
:100B000033EC02F051EC02F06FEC02F063DECFEC5C
:100B100001F0D5EC01F019A003D0C7EC01F0C291AF
:100B2000D896C2A1D88605E451EC03F0C7EC01F0D9
:100B3000C2914DC205F002014C5107EC00F00001DA
:060B4000DCD70300FED724
:020000040030CA
:03000100221A3C84
:02000500BD81BB
:060008000FC00FE00F40E5
:00000001FF
